:100000000C943A000C94A4010C94A4010C94A40147
:100010000C94A4010C94A4010C94A4010C94A401CC
:100020000C94A4010C94A4010C94A4010C94570109
:100030000C94A4010C94A4010C94A4010C94A401AC
:100040000C94A4010C94A4010C94A4010C94A4019C
:100050000C94A4010C94A4010C94A4010C94A4018C
:100060000C94A4010C94A401010001520003560158
:100070005201568011241FBECFEFD8E0DEBFCDBFA6
:10008000E8E6F0E040E017C0B591A59135912591E3
:10009000059107FD0CC095918591EF01F92FE82F8F
:1000A00005900D92A217B307D9F7FE0104C01D9267
:1000B000A217B307E1F7E437F40731F70E941901FB
:0800C0000C947A01F894FFCFC3
:0C00C80008EF051867121C1511139C1698
:1000D4000F931F93CF93DF93CDB7DEB7C255D109EA
:1000E4000FB6F894DEBF0FBECDBF82E5E0E0F1E0CD
:1000F4008E010F5F1F4FD80101900D928A95E1F791
:100104008CE291E00E943D015B988BE490E00E94B8
:100114003D012A9A8BE490E00E943D015A9A8BE4B7
:1001240090E00E943D015B9A8BE490E00E943D01C7
:10013400B80180E822E030E040E050E00E94D800BE
:100144008BE490E00E943D01BE016B5F7F4F80E82D
:100154002AE030E040E050E00E94D8008BE490E0D8
:100164000E943D01BE01675E7F4F80E827E130E0D9
:1001740040E050E00E94D8008BE490E00E943D01F2
:10018400BE01695B7F4F80E826E030E040E050E04C
:100194000E94D800CE5ADF4F0FB6F894DEBF0FBED0
:0C01A400CDBFDF91CF911F910F91089506
:1001B0004F925F926F927F928F929F92AF92BF9277
:1001C000CF92DF92EF92211531054105510529F1BA
:1001D00029013A01C62ED72EE82E812C912C5401EC
:1001E0005A9AF6015E2D0E948F01872F0E94970177
:1001F000F6018491E7FC80810E9497015A988FEF65
:10020000881A980AA80AB80A92E0C90ED11CE11C03
:10021000481459046A047B0419F7EF90DF90CF90DB
:10022000BF90AF909F908F907F906F905F904F9016
:0202300008952F
:100232008AB18C608AB90E9469010E949E017894F9
:100242000E946A00C0ECDAE580EE97E00E94850128
:100252002197D1F726E030E040E050E068EC70E012
:1002620080E00E94D800C0E9D9E280E098EF0E94C5
:0802720085012197D1F7FFCFB0
:10027A00F894209154013091550130935301209301
:10028A0052017894F8942091540130915501789450
:10029A004091520150915301241B350B28173907FD
:0402AA0088F3089538
:1002AE008F938FB78F939F938091540190915501A7
:1002BE00019690935501809354019F918F918FBF1A
:0402CE008F9118955F
:1002D200E1E8F0E0808189608083EFE6F0E08081F0
:1002E200826080838FE79EE39093890080938800E9
:0202F20008956D
:1002F400EC010E94A9010E94A801CE010E94AA015A
:06030400CE010E94A601DB
:10030A00CF93C82F892F0E9497018C2F0E949701A3
:04031A00CF910895E2
:10031E0057FD03C06591759108956191719108958E
:0E032E002A988EBD0DB407FEFDCF2A9A0895C1
:0C033C0084B18C6284B980E58CBD08950A
:040348000C94000011
:04034C000E946200A9
:0203500008950E
:0203520008950C
:0203540008950A
:10035600FDFDFDFD00EF04EE041BFEFEFEFE90EF2C
:10036600044A3F7F04EE064390EF83090008AF0B73
:10037600000A00050006000700EF0CEE90EF800073
:10038600B0EF024900EF017F81E102E276E283E10C
:10039600018090EF000008EF051883120015001386
:0203A600AF1690
:00000001FF
