:100000000C943A000C941F0D0C941F0D0C941F0DB2
:100010000C941F0D0C941F0D0C941F0D0C941F0DB0
:100020000C941F0D0C941F0D0C941F0D0C94D20CEE
:100030000C941F0D0C941F0D0C941F0D0C941F0D90
:100040000C941F0D0C941F0D0C941F0D0C941F0D80
:100050000C941F0D0C941F0D0C941F0D0C941F0D70
:100060000C941F0D0C941F0D01000152001A4C013D
:100070005201568011241FBECFEFD8E0DEBFCDBFA6
:10008000E8E6F0E040E017C0B591A59135912591E3
:10009000059107FD0CC095918591EF01F92FE82F8F
:1000A00005900D92A217B307D9F7FE0104C01D9267
:1000B000A217B307E1F7E437F40731F70E94300CD9
:0800C0000C94F50CF894FFCF3D
:1000C800FCCEFCCEB7051CCF3DCFDBBE59AE79AE1A
:1000D80079AE000059AE9AB65DCF1CCFFCCEFCCEEF
:1000E8007E003DCF79AE79B652BC0ECB4CDA8AD1C0
:1000F8008AD100002CDAEED2F1BB38BE59AE3DCF22
:10010800FCCEFCCE7A001DCF9AB6D7B5CED204C8A5
:1001180003C004C004C0040003C003C000004CDADC
:1001280035BD79AE3DD7FCCEFCCE77003DCF58A685
:1001380090D303C803C005C005C0080004C002C0AE
:10014800AED218AE1CCFFCCEFCCE75001DCFF7A5E5
:100158008AD903C005C005C00C0003C087D0B6B556
:10016800FCC6FCCEFCCE73003DD7F7A508D103C072
:1001780005C005C00E0004C005D0B6B51CCFFCCE26
:10018800FCCE71001CCF59AECBD903C005C005C049
:10019800100004C087D018AE3DD7FCCEFCCE70004E
:1001A800BBBE11CC02C005C005C0120003C0ADD251
:1001B80079AEFCCEFCCE6F001DCF38B604C805C0A2
:1001C80005C0140002C035B53DCFFCCEFCCE6E0094
:1001D800BBBE70CB03C005C005C0140004C06DDAF7
:1001E80059AEFCCEFCCE6E0079AEA7D004C005C0D7
:1001F80005C0150003C059BE1CCFFCCEFCCE6C0058
:100208001CCFD7BD01C003C003C0160001C011BC7C
:100218003DCFFCCEFCCE6C005DCF4FB377EDFFFF3A
:10022800FFFF16007EFF4CCABBBEFCCEFCCE6C00A6
:100238001CC76CBA7AF6BEFF9EFF9EFF1500FFFF33
:10024800CBD938AEFCCEFCCE6C00DBBE2CC2FCF6A3
:10025800BEFF9EFF9EFF1500FFFFABD159AEFCCE3F
:10026800FCCE6C00FCBE4CC2BBF6BEFF9EFF9EFFE0
:100278001500FFFFABD139AEFCCEFCCE6C005DCFD4
:10028800CDB2F9F5FFFFFFFF1600DFFF2CD279AEE4
:10029800FCCEFCCE6C003DCFF4BCE8C88DD26DD24C
:1002A8006DD214008DD2AAD14FBB3DCFFCCEFCCE6F
:1002B8006D009AB603C803C004C004C0150001C08D
:1002C800B7BD1CCFFCCEFCCE6D0059AEADDA04C074
:1002D80005C005C0140004C029D179AEFCCEFCCEFF
:1002E8006E003DCF55B502C005C005C0140003C05F
:1002F80011C4FCC6FCCEFCCE6F0079AE6DDA03C02B
:1003080005C005C0120004C008D159AE1CCFFCCEF0
:10031800FCCE6F003DD7F7AD05D004C005C005C0C1
:10032800110003C876BD1CCFFCCEFCCE7100FCC604
:1003380055BD03C804C005C005C00F0002C093CC5A
:10034800BAB6FCCEFCCE7300BBBE35C504C804C02B
:1003580005C005C00C0004C002C053CC9AAE1CCF27
:10036800FCCEFCCE42003DD7FCCEFCCE2F00BBBE5F
:1003780096B5E8D003C004C005C005C0090003C095
:1003880005D015C59AB61CCFFCCEFCCE41001DD7B2
:10039800B18C0E7C5ED7FCCEFCCE2F001CCF59AEA4
:1003A800D1CB05C803C004C004C0000005C005C007
:1003B800020004C004C0000003C004C82FD338AE34
:1003C800FBC6FCCEFCCE40003DD73DD701005DD733
:1003D800D28C823175A51DD7FCCEFCCE2F001CCF48
:1003E800BBBE79B611BC8EDA87D003C803C801003A
:1003F80002C026C84DDA90BB59B69AB61DCFFCCEBE
:10040800FCCE4000DBCE0A5B8C6B0E7C59BE59BE1D
:100418000000C4394F843DD7FCCEFCCE31001CCF40
:100428005DCF38A6BAB638AE928C718CBAC6BAB659
:1004380038A63DCF1CCFFCCEFCCE41001DD7708422
:100448002F7C70842542A3317084E439D28CBFE7B5
:100458009AC6BAC61CCF3DD7FCCEFCCE30003DD7DD
:10046800B7A5293AC7299EDFFCCEFCCE46001DD78A
:100478007EDFBFE7DFE72E7C053A4642B18CE952C2
:10048800A331C331E439F3943DD7FCCEFCCE2F0021
:100498001CD7B7A54942E8317EDFFCCEFCCE46002A
:1004A8005EDFF294043AE4398C6B095B664A464293
:1004B800095BCD7370844A6382299AC6FCCEFCCE50
:1004C8002F001CD7B7A54942E8317EDFFCCEFCCE11
:1004D80045003DD77084A331674A6C6BA8524642E9
:1004E800664A4642D2945ED75ED700005EDF59BEA8
:1004F800D7ADFCCEFCCE2F001CD7B7A54942E831BA
:100508007EDFFCCEFCCE4500DBC64129CD73BFE7BC
:1005180075A5053A095B47522A5BC439A852DCCE57
:10052800FCCEFCCE32001CD7B7A54942E8317EDFAD
:10053800FCCEFCCE33003DD75EDF5EDF02005DD728
:10054800FCCEFCCE09001DD7D294549D5EDF5ED749
:100558008C6B043AF2944B7338BEAD6BC4398C6B18
:100568005EDFFCCEFCCE31001CD7B7A54942E8318E
:100578007EDFFCCEFCCE32003DD7D38CCB520C5B59
:100588000C5B02001DD7FCCEFCCE0900DCCE1DD7CB
:10059800FCCE5EDFE95205421CCFD294AD7BFFEF63
:1005A8002A63A3317ABEFCCEFCCE31001CD7B7A596
:1005B8004942E8317EDFFCCEFCCE32009EDFE318F4
:1005C80000000000030059BE1CCFFCCEFCCE0B007F
:1005D8005EDF25422A639FDF18B6054A7EDFBBC669
:1005E800833191843DD7FCCEFCCE30001CD7B7A513
:1005F8004942E8317EDFFCCEFCCE32009EDF452149
:100608000000000003007ABE1CCFFCCEFCCE0B001D
:100618003DD7AC6BC8525EDF3DD783415DD75EDF07
:100628004A630E7C3DD7FCCEFCCE30001CD7B7A564
:100638004942E8317EDFFCCEFCCE32009EDFE31873
:10064800000000000300BBC61CCFFCCEFCCE0B0094
:100658001CCFF7AD25425EDF5ED7A3417AC61DD712
:10066800F7B5B18C1DD7FCCEFCCE30001CD7B7A592
:100678004942E8317EDFFCCEFCCE32003DD7B38C58
:10068800CB52D38CCF6B317C49422421DFE7FCCE9F
:10069800FCCE0C005ED74F843DD75ED74752F7B5E6
:1006A8001CCFFCCEFCCE33001CD7B7A54942E8319D
:1006B8007EDFFCCEFCCE33003DD7FFEF000000000C
:1006C8000000317CFFF7A6316E633DD7FCCEFCCE2F
:1006D8000C001DD7FCCE5ED70A6B349D1DD7FCCE0F
:1006E800FCCE33001CD7B7A54942E8317EDFFCCEEB
:1006F800FCCE3400BFE72D5B04191CD77EDF000059
:100708008E6B3DD7FCCEFCCE0E003DD78C739194FA
:100718003DD7FCCEFCCE33001CD7B7A54942E83103
:100728007EDFFCCEFCCE33007EDF4D63CF731074CA
:10073800CF6B0000EF739FE7FCCEFCCE05001CD703
:100748001CD708005EDFCE7B708C5DDF1CD71CD702
:1007580033003DD7D7AD4942E8319FDFFDCEFDCE0E
:1007680008001DCF1DCF0000FDCEFDCE0A001DCF15
:100778001DCF0300FDCEFDCE09001DCFFDCEFDCE61
:1007880003001DCF1DCF04005ED7F49400000000C5
:1007980002000D5BDFE7FDCEFDCE01001DCF1DCFB2
:1007A8000000FDCEFDCE0100F584F58408003685F5
:1007B8000B632B633685F584F5841900158536851A
:1007C8001585F584F5841500168552746A4A083231
:1007D80052EEF1DDF1DD080090D590D50000F1DD95
:1007E800F1DD0A00B0D590D590D50100B0DDF1DD7E
:1007F800F1DD0900B0D5F1DDF1DD0200D0DDB0D5C5
:1008080090D590D5030072F6400800000000020061
:10081800097352EEF1DDF1DD000011DE4FCDB0D5E8
:10082800F1DDF1DD0100158515850800578D2B6375
:100838004C6B578D15851585180016859795F06BA7
:100848001585368D158515851400368D52746A4ABE
:10085800083230F6D0DDD0DD0300D0E5AFDD6ED54F
:100868006ED501002ECD4ECD6ED5CFDDD0E5D0DDD5
:10087800D0DD01008FD56ED56FD56ED56ED5000051
:100888008FD56FD56ED56ED50200AFDDD0E5D0DD42
:10089800D0DD0200CFDDD0DDD0DD0000F0E5CCBC3E
:1008A8006FD56ED56ED502008FD5CFDDD0DDD0DD0A
:1008B800020010E66CACE220000000000200866234
:1008C800CFE56ED56ED50000CCBC6ED56FD56ED594
:1008D8006ED50100168516850800578DC95A0B6319
:1008E800578D16851685170015857795862900007A
:1008F800000000001585368D168516851300368D87
:1009080052746A4A0832CFE58FD5AFDDD0DD6FD596
:100918004ECD4ECD00008FD5D0DDD0DD04006FD593
:100928000EC56FD56FD500008FD5B0DDD0DDD0DD19
:1009380008006FD54ECD6ED56ED500006FD5D0DDD1
:10094800F0E5F0E500004ECD2ECDF0E54ECD8FD58B
:10095800F0E5D0DDD0DD050031EEF3FE61108FD576
:10096800000000000200665A51EED0DDD0DD000024
:100978004ECDF0E5D0DDD0DD0200168516850800E5
:10098800578D885A2B63578D168516851700158540
:10099800B895000000000100D063568D16851685B5
:1009A8001300368D52746A4A083230EEAFDD8FD5A7
:1009B8000DC5D0DDD0DD0700F0E58FD56FD5F0E5AA
:1009C800D0DDD0DD0B00F0E5D0DDAFDD8FD56FD504
:1009D8000EC50DC5CDBC8FD5F0E5D0DDF0E58FD5C2
:1009E8000DC5B0DDF0E5D0DDD0DD020031EE665A90
:1009F800000000000000A4418CAC000000000100D1
:100A0800265231EED0DDF0E50DC5F0E5D0DDD0DDC4
:100A18000200168516850800368DCE733074368D23
:100A2800168516851700368D9795527482080832F8
:100A3800D99D368D168516851300368D52746A4AEF
:100A4800083251F6F0E50EC5F0E5D0E5D0DDD0DD91
:100A58000500F0E56ED56FD5F0E5D0DDD0DD0500F9
:100A68008FD56FD56FD506008FD5D0DDD0DD0000CE
:100A7800F0E56FD56FD50000F0E5D0DDD0DD0200E0
:100A8800F0E54ECD2ECDD0DDD0DD020071F6E220AE
:100A9800000000000100054A2000000000000000DE
:100AA800E54951F6D0DDF0E50DC5F0E5D0DDD0DD46
:100AB8000200168516850800368D517C727C368DAD
:100AC800168516851600368D5274CC4A2D536E5BEA
:100AD8004E5BCC4A368D168516851300368D5274BA
:100AE8006A4A083210EE2ECD2ECD00004ECD4ECDE6
:100AF80002006FD58FD5AFDDB0DDF0E54ECD4ECD20
:100B08000000AFDD6FD56ED56ED500006FD56FD5FF
:100B180002008FD5AFDDD0DDD0DD0900F0E5CDBC1A
:100B2800F0E5D0DDD0DD0100F0E58FD54ECD4ECD1E
:100B380000006ED56FD56ED56ED50100F0E5400882
:100B480000000000010086620000000001008439F6
:100B5800D0E54ECD4ECD02006ECD4ECD6FD5AFDD7A
:100B6800168516850800368D927C937C368D168501
:100B780016851600B8956108000000000300F06BA8
:100B8800568D168516851200368D52746A4AE831DC
:100B9800F0E5F0E50100D0DDD0DD0300AFDD8FD555
:100BA8008FD500000DC50DC50000CDBC0EC5AFDD4D
:100BB800F0E5F0E50100D0DDD0DD0E00AFDD0DC5BC
:100BC800F0E5AFDD4ECD4ECD01008FD5D0DDD0DDC7
:100BD800050072F6000000000200876200000000B5
:100BE8000100643951F6D0DDD0DD05008FD51685BA
:100BF800168508003685937CB37C36851685168560
:100C08001500368D52740000000003002100158580
:100C18007795168516851200368D52746A4A083201
:100C280051F6D0DDD0DD0700F0E5EDC4F0E5F0E5E4
:100C38000000D0DD4ECD0EC50EC500006ECDD0DD56
:100C4800F0E5F0E50000D0DDD0DD0900F0E5D0DD0D
:100C5800CDBCCDBC00000DC54ECDD0DDF0E5F0E536
:100C68000100D0DDD0DD0400F0E551EE0000000009
:100C780002002652000000000100232972F6F0E568
:100C8800F0E50000D0DDD0DD0300F0E5168516851F
:100C980008003685B484D4843685168516851500F3
:100CA8009895C3100000C3108621E410CC4AC729C8
:100CB8000000AB42778D168516851100368D52746B
:100CC8006A4A083231F6D0DDD0DD0600F0E50DC500
:100CD800AFDDD0DDD0DD0200F0E5F0E50000AFDDEE
:100CE8002ECD0EC50EC500008FD5F0E5F0E500004D
:100CF800D0DDD0DD03008FD54ECD4ECD01006FD5B0
:100D0800D0DDD0DD00008FD56FD54ECD4ECD05009E
:100D18006FD56FD500004ECD2ECDCDBC00000000A4
:100D28000200665A000000000100C2184ED5EDC44A
:100D38002ECD6ECD8FD5D0DDF0E58FD5EDC41685DF
:100D480016850900D484F584168516851300368522
:100D5800568D778DD4842C63EF7B4B73A9620B631C
:100D68006D6B2C5BEC4AE410368D368D00001685D1
:100D780016851000368D52746A4A083231F6D0DD75
:100D8800D0DD0500F0E5D0DDEDC410E6D0DDD0DD26
:100D980008004ECDEDC4EDC400004ECD8FD52ECD4C
:100DA8004ECD2ECD8FD5F0E5D0DDD0DD0A00F0E5B3
:100DB800D0E5ACBC2ECD6FD5AFD510E6CDB4CA9377
:100DC800297BE872A762000000000100811072F61A
:100DD800B0DD6FD54ECD0DC5CDBC6CB4EDC4F0E51E
:100DE8001685168506001585168516850000F58476
:100DF8001585168516851200578D368D8D734662BA
:100E0800055A2662265A46620552A449A449020098
:100E1800885ACF73778D368D168516850F00368DD7
:100E280052746A4A083231F6D0DDD0DD0100F0E5AF
:100E3800F0E501006FD5EDBC8CB46CAC2ECD4ECD79
:100E48004ECD07006FD58FD56FD5CDBC0EC56CAC18
:100E5800F0E5F0E50000D0DDD0DD0C00F0E58FD541
:100E68008CB4F0E5F0E50000D0DDD0DD0100F0E560
:100E780010EE51F62BA400002329E220C218643199
:100E880051EED0DDD0DD0100F0E5F0E501006CB4F5
:100E9800F0E5168516850600158516851685000069
:100EA800F584158516851685000015851685168521
:100EB8000D003685778DCF73055A265A46624762EC
:100EC8004762010067620652C549C5490300844963
:100ED800C549517C778D168516850E00368D52745E
:100EE8006A4A083251F6F0E5F0E500008FD50DC5E5
:100EF8008CB48CB400000EC5AFD5F0E5D0DDCDBC08
:100F08000DC5F0E5F0E50000D0DDD0DD0200F0E52C
:100F1800F0E50000AFDD0DC52ECDF0E5F0E50000F1
:100F28008FD56CACF0E5D0DDD0DD0B00F0E54ECD13
:100F3800CDBCF0E5D0DDD0DD060011EE51F640085D
:100F4800AA8B087392FED0DDD0DD0400F0E5ACB4C6
:100F5800B0DD1685168506001585168516850000F0
:100F6800158516851685090015851685368D568DC5
:100F7800168516850000368D578D578D00008862BE
:100F8800055A47624762040067620652C549C54967
:100F980005006341EA62988D568D368D1685168553
:100FA8000000568D368D1685158516851685050023
:100FB800368D52746A4A08328FDD8CB46CACEDBC45
:100FC8006FD5F0E5F0E50100D0DDD0DD0100F0E5FA
:100FD8008FD58CB42EC5F0E5D0E5D0E50000F0E55E
:100FE8006FD5EDBC4ECDF0E5D0E5D0DDD0DD00000D
:100FF800F0E54ECD6CAC10E6D0DDD0DD0600F0E5B6
:10100800F0E50200EDC42ECD11E6D0DDD0DD0800FC
:10101800F0E50000287B876231EED0DDD0DD0400EA
:10102800F0E54ECD0EC5168516851400368D778DE4
:10103800778D0000527C8E6B988D778DD4844D63AC
:10104800E649266247624762050067620652C5495B
:10105800C54906008449074A2D63D484778D988D45
:101068008E6B5274778D778D0000368D16851685B8
:101078000400368D52746A4A08328FDDD0DDF0E5FF
:10108800F0E50000D0DDD0DD0700F0E54ECD6CAC1A
:101098006FD52ECDCDBC6FD5F0E5D0DDD0DD040009
:1010A800F0E5EDBCACB410E6D0DDD0DD0000F0E535
:1010B800F0E502008FD52EC5ACB46CAC6CB46CAC4A
:1010C800ACB4CDBC6FD5F0E5F0E50100D0DDD0DDE6
:1010D8000400F0E50873ADB46CACF0E5D0DDD0DD0C
:1010E8000500F0E56CAC1685168512003685578D1F
:1010F8001074AA5A43392339233900006952E64942
:1011080089523174B895265A47624762050067626A
:101118000652C549C5490500A549685AB9953174AB
:101128008952E649895223392339000043398A52C2
:10113800F073568D368D168516850200368D5274DD
:101148006A4A083251F6D0DDD0DD0B00F0E511E631
:101158000BA4AFDDF0E5D0DDD0DD070010E68CB4E0
:10116800EDBC11E68FD52EC5ADB44BAC6BACCDBC88
:101178002ECDAFDDF0E510E68CB411E6D0DD0EC55E
:101188008CB48CB400000EC5D0DDF0E5F0E50000AD
:10119800D0DDD0DD020011EEF0E5F0E50000D0DD95
:1011A800D0DD0300F0E5F0E501008FD52BA416850E
:1011B80016851200368DE230233964398441844122
:1011C800000064394852B895578D368D578D4C6B51
:1011D800265A47624762040067620652C549C549F4
:1011E80005008449EF73568D368D578DB895695231
:1011F800643984418441000064392339E23015851B
:101208003685168516850100368D52746A4A08326D
:1012180031F6D0DDD0DD0B00F0E5CDBC2ECDF0E50C
:10122800D0DDD0DD0700F0E510E62ECDCA93EA9BAD
:10123800ACB42ECDAFDDF0E5F0E50200D0DDD0DDB9
:101248000000F0E54BACF0E5D0DDF0E5F0E501009D
:101258004ECD8CB44BACCDBC8FD5F0E5F0E501009C
:10126800D0DDD0DD0200F0E5F0E5000010E68FD516
:10127800EDC44BAC0BA4ACB44ECD1685168512004C
:10128800778DA541A54103008541CF6B568D168505
:10129800168500003685F584E559476247620400E3
:1012A800265AC451A449C549C5490400A449778DA3
:1012B800168516850100568DF0738541A541A54117
:1012C80002008441578D168516850200368D5274AA
:1012D8006A4A083231F6D0DDD0DD0B008FD54BAC31
:1012E80010E6D0DDD0DD0600F0E510E60EC5EA9B7D
:1012F8008CB4B0DD8FD5ADB48CB42EC5F0E5F0E577
:101308000100D0DDD0DD0100F0E52BA4F0E5D0DD53
:10131800D0DD0200F0E5F0E501006FD5ADB42BA4F7
:101328008CB42ECDF0E5F0E5000010E6D0DD0EC55A
:101338006CAC0B9C6CAC0EC5AFDD10E6F0E5F0E5CF
:1013480000001685168512003685527C727C727CE8
:101358000300B37C368D1685168500001585578DDC
:101368006C6BE559055A055A0200E451AD83B294F5
:101378002B6B84416341634102004241F07336851F
:101388001585168516850000368DB37C727C727CB7
:101398000300527C168516850300368D52746A4AFE
:1013A800083231F6D0DDD0DD0800D0E5F0E510E6F2
:1013B800EA9BD0E5D0DDD0DD0500F0E510E60EC5EE
:1013C800EA9BACB4D0DDF0E5D0DDD0DD0000F0E57F
:1013D800F0E500002ECD4CAC4BAC0EC5F0E5F0E5C9
:1013E80002004BA4AFDDD0DDD0DD0600F0E5F0E56E
:1013F8000000AFDDEDBC2BA46CAC2BA42BA400002B
:10140800EDBC8FD5F0E5F0E50100D0DDD0DD0200C0
:101418001685168512003685D484937C727C727C7E
:101428000300D48415851685368DB79D979D2F8426
:10143800B294B2940000F394559D549DFCCE59BECD
:10144800359D5ABED7AD349D559D149D928C3AAEAC
:10145800B8A5368D16851585D484727C727C0300F8
:10146800937CD4843685168516850200368D527491
:101478006A4A083251F6D0DDF0E5F0E50500D0DD26
:10148800AFD56FD54ECD4CAC4ECDF0E5D0DDD0DD2F
:101498000300F0E510E6EDC4EA9BCDBCF0E5F0E50D
:1014A8000000D0DDD0DD0400F0E5F0E50000D0DD7F
:1014B8000EC50BA42BA40EC510E68CB46FD510E690
:1014C800F0E5D0DDD0DD0700F0E511EE8CB42ECDCF
:1014D80010E6F0E5D0DDD0DD060016851685130090
:1014E8003685368D3685F584D484B37C1685F584A7
:1014F800D484D4840000F5843685CF73EF73EF73FA
:101508000200CF73CF730000AE738E6BAE6B8E6B21
:10151800AE6BAE6B030051741685F584D484D48405
:101528000000F5843685B484D484F5843685368DF8
:101538003685168516850300368D52746A4A083238
:1015480030EE6FD52EC5EDBC8CB44BAC0BA40BA400
:1015580000002BA46CACADBC0B9C898BCDBCCA9B8A
:101568006FD510E6D0DDD0DD0000F0E5F0E5000035
:10157800EDBCEA9BEDBCF0E5F0E50000D0DDD0DD88
:101588000900F0E510E6D0DDCDBCEA9BEA9B00003F
:10159800CA936CAC0EC5D0DD10E6F0E5F0E50000AE
:1015A800D0DDD0DD0400F0E5ACB4EDBCF0E5D0DD75
:1015B800D0DD0700168516851700368536850000AC
:1015C800168516850300937C107C307C307C0500E2
:1015D800107C107410740500EF73158515850000D4
:1015E800168516850200368536850000168516850F
:1015F8000700368D52746A4AE8314BAC6CACADBC0E
:101608000EC56FCDAFDDF0E531EE10E6CDBCCA9367
:10161800CDBC10E6F0E5D0E5EB9B4CAC10E610E64F
:101628000000CDBCEB9B0EC510E6F0E5D0DDD0DDAB
:101638000E00F0E531EE8A8BD0DD2EC58CB4EA9B26
:10164800AA934BA4EDBC8FD510E6F0E5F0E50000B9
:10165800D0DDD0DD0000F0E5CDBCADB4F0E5D0DDE7
:10166800D0DD0700168516851D00368D517C517C0E
:1016780008005174517405003174B4843685168598
:1016880016850D00368D52746A4A083271F6F0E5F7
:10169800F0E5020010E6AFDD4CAC698BCDBC10E67E
:1016A800F0E5D0DDD0DD010010E60EC5AA932BA42D
:1016B8006FCD10E6F0E5D0DDD0DD1000F0E58CB49C
:1016C800ADB4F0E5F0E5010010E610E600008FD5B6
:1016D800EDBC4CA4EA9B2BA4CDBC6FD5F0E510E67D
:1016E8000EC56CACF0E5D0DDD0DD0700168516859B
:1016F8001D001585727C927C927C0600727C727C3F
:101708000700937C368D168516850D00368D52742C
:101718006A4A083231F6D0DDD0DD01002ECD0BA4A7
:10172800AA930EC510E6F0E5D0DDD0DD0400F0E5A3
:10173800D0DDCA932ECDF0E5D0DDD0DD1100AFDDD0
:101748008A8B10E6D0DDD0DD0400F0E5F0E500007E
:1017580010E6F0E54ECDCDBC6CAC6CAC00004CACEA
:101768004CA4F0E5D0DDD0DD07000000000000004B
:0C17780008EF051867121C1511139C16D1
:101784000F931F93CF93DF93CDB7DEB7C255D10923
:101794000FB6F894DEBF0FBECDBF82E5E0E0F1E006
:1017A4008E010F5F1F4FD80101900D928A95E1F7CA
:1017B4008CE291E00E94B80C5B988BE490E00E946C
:1017C400B80C2A9A8BE490E00E94B80C5A9A8BE4E5
:1017D40090E00E94B80C5B9A8BE490E00E94B80CF5
:1017E400B80180E822E030E040E050E00E94770C4D
:1017F4008BE490E00E94B80CBE016B5F7F4F80E8E1
:101804002AE030E040E050E00E94770C8BE490E066
:101814000E94B80CBE01675E7F4F80E827E130E08C
:1018240040E050E00E94770C8BE490E00E94B80CFA
:10183400BE01695B7F4F80E826E030E040E050E085
:101844000E94770CCE5ADF4F0FB6F894DEBF0FBE5E
:0C185400CDBFDF91CF911F910F9108953F
:101860008AB18C608AB90E94E40C0E94190D7894A8
:101870000E94C20BC0ECDAE580EE97E00E94000DFA
:101880002197D1F726E030E040E050E068E777E1CB
:1018900080E00E94770CC0E9D9E280E098EF0E94D6
:1018A000000D2197D1F788EE93E00E94B80C0F2E1F
:1018B000F8ECCF2EF0E0DF2EF0E0EF2EF02D0F2E23
:1018C000F8EE6F2EF3E57F2EF0E08F2EF02DF6016F
:1018D0005E2D0E940A0DCB010E94000D82E0C80E11
:0E18E000D11CE11C6C147D048E0489F7FFCF2F
:1018EE004F925F926F927F928F929F92AF92BF9222
:1018FE00CF92DF92EF92211531054105510529F165
:10190E0029013A01C62ED72EE82E812C912C540196
:10191E005A9AF6015E2D0E940A0D872F0E94120D13
:10192E00F6018491E7FC80810E94120D5A988FEF88
:10193E00881A980AA80AB80A92E0C90ED11CE11CAE
:10194E00481459046A047B0419F7EF90DF90CF9086
:10195E00BF90AF909F908F907F906F905F904F90C1
:02196E000895DA
:10197000F8942091540130915501309353012093F4
:1019800052017894F8942091540130915501789443
:101990004091520150915301241B350B28173907F0
:0419A00088F308952B
:1019A4008F938FB78F939F9380915401909155019A
:1019B400019690935501809354019F918F918FBF0D
:0419C4008F91189552
:1019C800E1E8F0E0808189608083EFE6F0E08081E3
:1019D800826080838FE79EE39093890080938800DC
:0219E800089560
:1019EA00EC010E94240D0E94230DCE010E94250DB8
:0619FA00CE010E94210D48
:101A0000CF93C82F892F0E94120D8C2F0E94120D88
:041A1000CF910895D5
:101A140057FD03C065917591089561917191089581
:0E1A24002A988EBD0DB407FEFDCF2A9A0895B4
:0C1A320084B18C6284B980E58CBD0895FD
:041A3E000C94000004
:041A42000E9462009C
:021A4600089501
:021A48000895FF
:021A4A000895FD
:101A4C00FDFDFDFD00EF04EE041BFEFEFEFE90EF1F
:101A5C00044A3F7F04EE064390EF83090008AF0B66
:101A6C00000A00050006000700EF0CEE90EF800066
:101A7C00B0EF024900EF017F81E102E276E283E1FF
:101A8C00018090EF000008EF051883120015001379
:021A9C00AF1683
:00000001FF
