:100000000C943A000C949C010C949C010C949C015F
:100010000C949C010C949C010C949C010C949C01EC
:100020000C949C010C949C010C949C010C9459011F
:100030000C949C010C949C010C949C010C949C01CC
:100040000C949C010C949C010C949C010C949C01BC
:100050000C949C010C949C010C949C010C949C01AC
:100060000C949C010C949C010100015E000346016C
:100070005E01628011241FBECFEFD8E0DEBFCDBF8E
:10008000E8E6F0E040E017C0B591A59135912591E3
:10009000059107FD0CC095918591EF01F92FE82F8F
:1000A00005900D92A217B307D9F7FE0104C01D9267
:1000B000A217B307E1F7E437F40731F70E94130101
:0800C0000C947C01F894FFCFC1
:1000C8000F931F93CF93DF93CDB7DEB7C255D109F6
:1000D8000FB6F894DEBF0FBECDBF82E5E0E0F1E0D9
:1000E8008E010F5F1F4FD80101900D928A95E1F79D
:1000F8008CE291E00E943F015B988BE490E00E94C3
:100108003F012A9A8BE490E00E943F015A9A8BE4BF
:1001180090E00E943F015B9A8BE490E00E943F01CF
:10012800B80180E822E030E040E050E00E94D200D0
:100138008BE490E00E943F01BE016B5F7F4F80E837
:100148002AE030E040E050E00E94D2008BE490E0EA
:100158000E943F01BE01675E7F4F80E827E130E0E3
:1001680040E050E00E94D2008BE490E00E943F0102
:10017800BE01695B7F4F80E826E030E040E050E058
:100188000E94D200CE5ADF4F0FB6F894DEBF0FBEE2
:0C019800CDBFDF91CF911F910F91089512
:1001A4004F925F926F927F928F929F92AF92BF9283
:1001B400CF92DF92EF92211531054105510529F1C6
:1001C40029013A01C62ED72EE82E812C912C5401F8
:1001D4005A9AF6015E2D0E948701872F0E948F0193
:1001E400F6018491E7FC80810E948F015A988FEF79
:1001F400881A980AA80AB80A92E0C90ED11CE11C10
:10020400481459046A047B0419F7EF90DF90CF90E7
:10021400BF90AF909F908F907F906F905F904F9022
:0202240008953B
:100226002198299A5198599A8AB18C608AB90E9464
:100236006B010E94960178940E946400C0ECDAE596
:100246008FEF0E948F0180EE0E948F012197C1F7E8
:1002560062E571E080E826E030E040E050E00E9490
:10026600D200CCE2D1E087E00E948F0180EE0E94AE
:080276008F012197C1F7FFCFB2
:10027E00F894209160013091610130935F012093D9
:10028E005E017894F8942091600130916101789428
:10029E0040915E0150915F01241B350B28173907E1
:0402AE0088F3089534
:1002B2008F938FB78F939F9380916001909161018B
:1002C200019690936101809360019F918F918FBFFE
:0402D2008F9118955B
:1002D600E1E8F0E0808189608083EFE6F0E08081EC
:1002E600826080838FE79EE39093890080938800E5
:0202F600089569
:1002F800EC010E94A1010E94A001CE010E94A2016E
:06030800CE010E949E01DF
:10030E0057FD03C06591759108956191719108959E
:0E031E002A988EBD0DB407FEFDCF2A9A0895D1
:0C032C0084B18C6284B980E58CBD08951A
:040338000C94000021
:04033C000E946200B9
:0203400008951E
:0203420008951C
:0203440008951A
:10034600FDFDFDFD00EF04EE041BFEFEFEFE90EF3C
:10035600044A3F7F04EE064390EF83090008AF0B83
:10036600000A00050006000700EF0CEE90EF800083
:10037600B0EF024900EF017F81E102E276E283E11C
:10038600018090EF000008EF00180012831500139B
:02039600AF16A0
:0C03980008EF0018231236155A136816DF
:00000001FF
