:100000000C943A000C94F4020C94F4020C94F40254
:100010000C94F4020C94F4020C94F4020C94F40288
:100020000C94F4020C94F4020C94F4020C949902D3
:100030000C94F4020C94F4020C9464000C94F402FA
:100040000C94F4020C94F4020C94F4020C94F40258
:100050000C94F4020C94F4020C94F4020C94F40248
:100060000C94F4020C94F4020100015E0005F60108
:100070005E016C8011241FBECFEFD8E0DEBFCDBF84
:10008000E8E6F0E040E017C0B591A59135912591E3
:10009000059107FD0CC095918591EF01F92FE82F8F
:1000A00005900D92A217B307D9F7FE0104C01D9267
:1000B000A217B307E1F7E437F40731F70E94FA011A
:0800C0000C94CA02F894FFCF72
:1000C8001F920F920FB60F921124CF92DF92EF92E8
:1000D8002F933F934F935F936F937F938F939F9348
:1000E800AF93BF93EF93FF9382E591E06C0120E813
:1000F800E22E26E030E040E050E08E2DB6010E946E
:100108003E02109265011092640180EE97E00E9411
:10011800D5028091640190916501019690936501E3
:10012800809364018C32914080F3199916C08091B4
:1001380069018F5F80936901809169018A30A8F015
:1001480081E080936B018091620190916301019637
:10015800909363018093620108C010926901109224
:100168006B011092630110926201499916C0809147
:1001780068018F5F80936801809168018A30A8F0D8
:1001880081E080936A0180916001909161010196FC
:10019800909361018093600108C0109268011092E9
:1001A8006A01109261011092600180916B018823AD
:1001B800E9F180915A0190915B0183389541B0F53E
:1001C8008091620190916301019709F473C0809155
:1001D8006201909163018436910540F126E030E098
:1001E80040E050E08E2DB6010E943E02109265015B
:1001F8001092640180EE9FEF0E94D5028091640105
:1002080090916501019690936501809364018C3209
:10021800914080F3E2E5F1E0848195810196958330
:1002280084838085918501969187808780916A0172
:10023800882309F459C08091560190915701813063
:10024800924108F451C08091600190916101019739
:10025800F1F180916001909161018436910508F473
:1002680043C026E030E040E050E08E2DB6010E9409
:100278003E02109265011092640180EE9FEF0E9489
:10028800D502809164019091650101969093650172
:10029800809364018C32914080F3E2E5F1E084813F
:1002A80095810197958384838085918501979187AE
:1002B80080871AC026E030E040E050E08E2DB6017D
:1002C8000E943E02109265011092640193CF26E0CD
:1002D80030E040E050E08E2DB6010E943E021092C0
:1002E800650110926401C9CFFF91EF91BF91AF9161
:1002F8009F918F917F916F915F914F913F912F9136
:10030800EF90DF90CF900F900FBE0F901F90189531
:100318000F931F93CF93DF93CDB7DEB7C255D109A3
:100328000FB6F894DEBF0FBECDBF82E5E0E0F1E086
:100338008E010F5F1F4FD80101900D928A95E1F74A
:100348008CE291E00E947F025B988BE490E00E942F
:100358007F022A9A8BE490E00E947F025A9A8BE4EB
:1003680090E00E947F025B9A8BE490E00E947F02FB
:10037800B80180E822E030E040E050E00E943E0210
:100388008BE490E00E947F02BE016B5F7F4F80E8A4
:100398002AE030E040E050E00E943E028BE490E02A
:1003A8000E947F02BE01675E7F4F80E827E130E050
:1003B80040E050E00E943E028BE490E00E947F0201
:1003C800BE01695B7F4F80E826E030E040E050E006
:1003D8000E943E02CE5ADF4F0FB6F894DEBF0FBE22
:0C03E800CDBFDF91CF911F910F910895C0
:1003F4002198299A5198599A8AB18C608AB90E9495
:10040400AB020E94EE0278940E948C01F8940E9440
:10041400BC02109265011092640180EE9FEF0E946D
:10042400D5028091640190916501019690936501D4
:1004340080936401803C9A4580F362E571E080E832
:1004440026E030E040E050E00E943E021092650158
:100454001092640180EE97E00E94D50280916401BD
:1004640090916501019690936501809364018C32AB
:08047400914080F37894FFCF62
:10047C004F925F926F927F928F929F92AF92BF92A8
:10048C00CF92DF92EF92211531054105510529F1EB
:10049C0029013A01C62ED72EE82E812C912C54011D
:1004AC005A9AF6015E2D0E94DF02872F0E94E70206
:1004BC00F6018491E7FC80810E94E7025A988FEF45
:1004CC00881A980AA80AB80A92E0C90ED11CE11C35
:1004DC00481459046A047B0419F7EF90DF90CF900D
:1004EC00BF90AF909F908F907F906F905F904F9048
:0204FC00089561
:1004FE00F894209166013091670130935F0120934B
:10050E005E017894F8942091660130916701789499
:10051E0040915E0150915F01241B350B281739075E
:04052E0088F30895B1
:100532008F938FB78F939F938091660190916701FC
:10054200019690936701809366019F918F918FBF6F
:040552008F911895D8
:10055600E1E8F0E0808189608083EFE6F0E0808169
:10056600826080838FE79EE3909389008093880062
:020576000895E6
:1005780084B5826084BD85B5836085BDEEE6F0E014
:0C05880080818260808389EF87BD089528
:10059400EC010E94F9020E94F802CE010E94FA02C4
:0605A400CE010E94F602E8
:1005AA00CF93C82F892F0E94E7028C2F0E94E7025F
:0405BA00CF91089540
:1005BE0057FD03C0659175910895619171910895EC
:0E05CE002A988EBD0DB407FEFDCF2A9A08951F
:0C05DC0084B18C6284B980E58CBD089568
:0405E8000C9400006F
:0405EC000E94620007
:0205F00008956C
:0205F20008956A
:0205F400089568
:1005F600FDFDFDFD00EF04EE041BFEFEFEFE90EF8A
:10060600044A3F7F04EE064390EF83090008AF0BD0
:10061600000A00050006000700EF0CEE90EF8000D0
:10062600B0EF024900EF017F81E102E276E283E169
:10063600018090EF000008EF0018001283150013E8
:02064600AF16ED
:0C06480008EF001823125A13361568162C
:00000001FF
