:100000000C943A000C94A2010C94A2010C94A2014D
:100010000C94A2010C94A2010C94A2010C94A201D4
:100020000C94A2010C94A2010C94A2010C945F0107
:100030000C94A2010C94A2010C94A2010C94A201B4
:100040000C94A2010C94A2010C94A2010C94A201A4
:100050000C94A2010C94A2010C94A2010C94A20194
:100060000C94A2010C94A201010001520003520160
:100070005201568011241FBECFEFD8E0DEBFCDBFA6
:10008000E8E6F0E040E017C0B591A59135912591E3
:10009000059107FD0CC095918591EF01F92FE82F8F
:1000A00005900D92A217B307D9F7FE0104C01D9267
:1000B000A217B307E1F7E437F40731F70E941901FB
:0800C0000C948201F894FFCFBB
:0C00C80008EF0018231236155A136816B2
:1000D4000F931F93CF93DF93CDB7DEB7C255D109EA
:1000E4000FB6F894DEBF0FBECDBF82E5E0E0F1E0CD
:1000F4008E010F5F1F4FD80101900D928A95E1F791
:100104008CE291E00E9445015B988BE490E00E94B0
:1001140045012A9A8BE490E00E9445015A9A8BE4A7
:1001240090E00E9445015B9A8BE490E00E944501B7
:10013400B80180E822E030E040E050E00E94D800BE
:100144008BE490E00E944501BE016B5F7F4F80E825
:100154002AE030E040E050E00E94D8008BE490E0D8
:100164000E944501BE01675E7F4F80E827E130E0D1
:1001740040E050E00E94D8008BE490E00E944501EA
:10018400BE01695B7F4F80E826E030E040E050E04C
:100194000E94D800CE5ADF4F0FB6F894DEBF0FBED0
:0C01A400CDBFDF91CF911F910F91089506
:1001B0004F925F926F927F928F929F92AF92BF9277
:1001C000CF92DF92EF92211531054105510529F1BA
:1001D00029013A01C62ED72EE82E812C912C5401EC
:1001E0005A9AF6015E2D0E948D01872F0E9495017B
:1001F000F6018491E7FC80810E9495015A988FEF67
:10020000881A980AA80AB80A92E0C90ED11CE11C03
:10021000481459046A047B0419F7EF90DF90CF90DB
:10022000BF90AF909F908F907F906F905F904F9016
:0202300008952F
:100232002198299A5198599A8AB18C608AB90E9458
:1002420071010E949C0178940E946A00C0ECDAE578
:100252008FEF0E94950180EE0E9495012197C1F7D0
:1002620026E030E040E050E068EC70E080E00E9480
:10027200D800CCE2D1E087E00E94950180EE0E9496
:0802820095012197C1F7FFCFA0
:10028A00F8942091540130915501309353012093F1
:10029A0052017894F8942091540130915501789440
:1002AA004091520150915301241B350B28173907ED
:0402BA0088F3089528
:1002BE008F938FB78F939F93809154019091550197
:1002CE00019690935501809354019F918F918FBF0A
:0402DE008F9118954F
:1002E200E1E8F0E0808189608083EFE6F0E08081E0
:1002F200826080838FE79EE39093890080938800D9
:0203020008955C
:10030400EC010E94A7010E94A601CE010E94A8014F
:06031400CE010E94A401CD
:10031A0057FD03C065917591089561917191089592
:0E032A002A988EBD0DB407FEFDCF2A9A0895C5
:0C03380084B18C6284B980E58CBD08950E
:040344000C94000015
:040348000E946200AD
:02034C00089512
:02034E00089510
:0203500008950E
:10035200FDFDFDFD00EF04EE041BFEFEFEFE90EF30
:10036200044A3F7F04EE064390EF83090008AF0B77
:10037200000A00050006000700EF0CEE90EF800077
:10038200B0EF024900EF017F81E102E276E283E110
:10039200018090EF000008EF00180012831500138F
:0203A200AF1694
:00000001FF
