:100000000C943A000C948F020C948F020C948F0283
:100010000C948F020C948F020C948F020C948F021C
:100020000C948F020C948F020C948F020C943E025D
:100030000C948F020C948F020C9464000C948F0229
:100040000C948F020C948F020C948F020C948F02EC
:100050000C948F020C948F020C948F020C948F02DC
:100060000C948F020C948F020100015E00052C019C
:100070005E01688011241FBECFEFD8E0DEBFCDBF88
:10008000E8E6F0E040E017C0B591A59135912591E3
:10009000059107FD0CC095918591EF01F92FE82F8F
:1000A00005900D92A217B307D9F7FE0104C01D9267
:1000B000A217B307E1F7E437F40731F70E94F6011E
:0800C0000C946F02F894FFCFCD
:1000C8001F920F920FB60F921124CF92DF92EF92E8
:1000D8002F933F934F935F936F937F938F939F9348
:1000E800AF93BF93EF93FF9382E591E06C0120E813
:1000F800E22E26E030E040E050E08E2DB6010E946E
:10010800B501109261011092600187E00E9482029D
:1001180080EE0E94820280916001909161010196B7
:1001280090936101809360018C32914070F319992A
:100138000DC0809165018F5F809365018091650195
:100148008A3040F081E08093670104C01092650115
:100158001092670149990DC0809164018F5F809367
:100168006401809164018A3040F081E080936601E7
:1001780004C010926401109266018091670188237F
:10018800A9F180915A0190915B018338954170F5EE
:1001980026E030E040E050E08E2DB6010E94B50127
:1001A80010926101109260018FEF0E94820280EE2E
:1001B8000E94820280916001909161010196909362
:1001C8006101809360018C32914070F3E2E5F1E0C7
:1001D8008481958101969583848380859185019694
:1001E8009187808781E090E00E94240280916601D7
:1001F800882389F18091560190915701813092416D
:1002080050F126E030E040E050E08E2DB6010E942B
:10021800B50110926101109260018FEF0E94820275
:1002280080EE0E94820280916001909161010196A6
:1002380090936101809360018C32914070F3E2E504
:10024800F1E08481958101979583848380859185E8
:1002580001979187808781E090E00E942402FF91B6
:10026800EF91BF91AF919F918F917F916F915F9126
:100278004F913F912F91EF90DF90CF900F900FBE4D
:060288000F901F90189575
:10028E000F931F93CF93DF93CDB7DEB7C255D1092E
:10029E000FB6F894DEBF0FBECDBF82E5E0E0F1E011
:1002AE008E010F5F1F4FD80101900D928A95E1F7D5
:1002BE008CE291E00E9424025B988BE490E00E9415
:1002CE0024022A9A8BE490E00E9424025A9A8BE42C
:1002DE0090E00E9424025B9A8BE490E00E9424023C
:1002EE00B80180E822E030E040E050E00E94B50125
:1002FE008BE490E00E942402BE016B5F7F4F80E88A
:10030E002AE030E040E050E00E94B5018BE490E03E
:10031E000E942402BE01675E7F4F80E827E130E035
:10032E0040E050E00E94B5018BE490E00E94240270
:10033E00BE01695B7F4F80E826E030E040E050E090
:10034E000E94B501CE5ADF4F0FB6F894DEBF0FBE36
:0C035E00CDBFDF91CF911F910F9108954A
:10036A004F925F926F927F928F929F92AF92BF92BB
:10037A00CF92DF92EF92211531054105510529F1FE
:10038A0029013A01C62ED72EE82E812C912C540130
:10039A005A9AF6015E2D0E947A02872F0E948202E3
:1003AA00F6018491E7FC80810E9482025A988FEFBD
:1003BA00881A980AA80AB80A92E0C90ED11CE11C48
:1003CA00481459046A047B0419F7EF90DF90CF9020
:1003DA00BF90AF909F908F907F906F905F904F905B
:0203EA00089574
:1003EC002198299A5198599A8AB18C608AB90E949D
:1003FC0050020E94890278940E944701C0ECDAE511
:10040C008FEF0E94820280EE0E9482022197C1F738
:10041C0062E571E080E826E030E040E050E00E94C8
:10042C00B501CCE2D1E087E00E94820280EE0E940E
:0C043C0082022197C1F70E946102FFCFED
:10044800F894209162013091630130935F01209309
:100458005E017894F8942091620130916301789458
:1004680040915E0150915F01241B350B2817390715
:0404780088F3089568
:10047C008F938FB78F939F938091620190916301BB
:10048C00019690936301809362019F918F918FBF2E
:04049C008F9118958F
:1004A000E1E8F0E0808189608083EFE6F0E0808120
:1004B000826080838FE79EE3909389008093880019
:0204C00008959D
:1004C20084B5826084BD85B5836085BDEEE6F0E0CB
:0C04D20080818260808389EF87BD0895DF
:1004DE00EC010E9494020E949302CE010E949502AA
:0604EE00CE010E94910204
:1004F40057FD03C0659175910895619171910895B7
:0E0504002A988EBD0DB407FEFDCF2A9A0895E9
:0C05120084B18C6284B980E58CBD089532
:04051E000C94000039
:040522000E946200D1
:02052600089536
:02052800089534
:02052A00089532
:10052C00FDFDFDFD00EF04EE041BFEFEFEFE90EF54
:10053C00044A3F7F04EE064390EF83090008AF0B9B
:10054C00000A00050006000700EF0CEE90EF80009B
:10055C00B0EF024900EF017F81E102E276E283E134
:10056C00018090EF000008EF0018001283150013B3
:02057C00AF16B8
:0C057E0008EF001823125A1336156816F7
:00000001FF
