:100000000C943A000C94DC020C94DC020C94DC029C
:100010000C94DC020C94DC020C94DC020C94DC02E8
:100020000C94DC020C94DC020C94DC020C948B0229
:100030000C94DC020C94DC020C9464000C94DC0242
:100040000C94DC020C94DC020C94DC020C94DC02B8
:100050000C94DC020C94DC020C94DC020C94DC02A8
:100060000C94DC020C94DC020100015E0005C60168
:100070005E016C8011241FBECFEFD8E0DEBFCDBF84
:10008000E8E6F0E040E017C0B591A59135912591E3
:10009000059107FD0CC095918591EF01F92FE82F8F
:1000A00005900D92A217B307D9F7FE0104C01D9267
:1000B000A217B307E1F7E437F40731F70E944302D0
:0800C0000C94BC02F894FFCF80
:1000C8001F920F920FB60F921124CF92DF92EF92E8
:1000D8002F933F934F935F936F937F938F939F9348
:1000E800AF93BF93EF93FF9382E591E06C0120E813
:1000F800E22E26E030E040E050E08E2DB6010E946E
:100108000202109265011092640187E00E94CF02FA
:1001180080EE0E94CF028091640190916501019662
:1001280090936501809364018C32914070F3199922
:1001380016C0809169018F5F809369018091690180
:100148008A30A8F081E080936B01809162019091E0
:1001580063010196909363018093620108C0109235
:10016800690110926B011092630110926201499922
:1001780016C0809168018F5F809368018091680143
:100188008A30A8F081E080936A01809160019091A3
:1001980061010196909361018093600108C01092FB
:1001A800680110926A0110926101109260018091B9
:1001B8006B01882309F43FC080915A0190915B013B
:1001C80083389541C0F58091620190916301019750
:1001D80009F478C080916201909163018436910599
:1001E80050F126E030E040E050E08E2DB6010E944C
:1001F800020210926501109264018FEF0E94CF02F3
:1002080080EE0E94CF028091640190916501019671
:1002180090936501809364018C32914070F3E2E51C
:10022800F1E0848195810196958384838085918509
:1002380001969187808780916A01882309F45CC0C0
:1002480080915601909157018130924108F454C031
:100258008091600190916101019709F440C08091FB
:100268006001909161018436910508F445C026E04B
:1002780030E040E050E08E2DB6010E94020210925C
:100288006501109264018FEF0E94CF0280EE0E94F8
:10029800CF02809164019091650101969093650168
:1002A800809364018C32914070F3E2E5F1E084813F
:1002B800958101979583848380859185019791879E
:1002C80080871AC026E030E040E050E08E2DB6016D
:1002D8000E94020210926501109264018ECF26E0FE
:1002E80030E040E050E08E2DB6010E9402021092EC
:1002F800650110926401C7CFFF91EF91BF91AF9153
:100308009F918F917F916F915F914F913F912F9125
:10031800EF90DF90CF900F900FBE0F901F90189521
:100328000F931F93CF93DF93CDB7DEB7C255D10993
:100338000FB6F894DEBF0FBECDBF82E5E0E0F1E076
:100348008E010F5F1F4FD80101900D928A95E1F73A
:100358008CE291E00E9471025B988BE490E00E942D
:1003680071022A9A8BE490E00E9471025A9A8BE4F7
:1003780090E00E9471025B9A8BE490E00E94710207
:10038800B80180E822E030E040E050E00E9402023C
:100398008BE490E00E947102BE016B5F7F4F80E8A2
:1003A8002AE030E040E050E00E9402028BE490E056
:1003B8000E947102BE01675E7F4F80E827E130E04E
:1003C80040E050E00E9402028BE490E00E9471023B
:1003D800BE01695B7F4F80E826E030E040E050E0F6
:1003E8000E940202CE5ADF4F0FB6F894DEBF0FBE4E
:0C03F800CDBFDF91CF911F910F910895B0
:100404004F925F926F927F928F929F92AF92BF9220
:10041400CF92DF92EF92211531054105510529F163
:1004240029013A01C62ED72EE82E812C912C540195
:100434005A9AF6015E2D0E94C702872F0E94CF02AE
:10044400F6018491E7FC80810E94CF025A988FEFD5
:10045400881A980AA80AB80A92E0C90ED11CE11CAD
:10046400481459046A047B0419F7EF90DF90CF9085
:10047400BF90AF909F908F907F906F905F904F90C0
:020484000895D9
:100486002198299A5198599A8AB18C608AB90E9402
:100496009D020E94D60278940E949401C0ECDAE58F
:1004A6008FEF0E94CF0280EE0E94CF022197C1F704
:1004B60062E571E080E826E030E040E050E00E942E
:1004C6000202CCE2D1E087E00E94CF0280EE0E94D9
:0C04D600CF022197C1F70E94AE02FFCFB9
:1004E200F894209166013091670130935F01209367
:1004F2005E017894F89420916601309167017894B6
:1005020040915E0150915F01241B350B281739077A
:0405120088F30895CD
:100516008F938FB78F939F93809166019091670118
:10052600019690936701809366019F918F918FBF8B
:040536008F911895F4
:10053A00E1E8F0E0808189608083EFE6F0E0808185
:10054A00826080838FE79EE390938900809388007E
:02055A00089502
:10055C0084B5826084BD85B5836085BDEEE6F0E030
:0C056C0080818260808389EF87BD089544
:10057800EC010E94E1020E94E002CE010E94E20228
:06058800CE010E94DE021C
:10058E0057FD03C06591759108956191719108951C
:0E059E002A988EBD0DB407FEFDCF2A9A08954F
:0C05AC0084B18C6284B980E58CBD089598
:0405B8000C9400009F
:0405BC000E94620037
:0205C00008959C
:0205C20008959A
:0205C400089598
:1005C600FDFDFDFD00EF04EE041BFEFEFEFE90EFBA
:1005D600044A3F7F04EE064390EF83090008AF0B01
:1005E600000A00050006000700EF0CEE90EF800001
:1005F600B0EF024900EF017F81E102E276E283E19A
:10060600018090EF000008EF001800128315001318
:02061600AF161D
:0C06180008EF001823125A13361568165C
:00000001FF
